:100000001AC13EC13DC13CC13BC13AC139C138C131
:1000100037C136C135C134C133C132C131C130C13C
:100020002FC12EC12DC12CC12BC12AC129C128C16C
:1000300027C126C1000000000301060209030C04C9
:100040000F051206150718081B091E0A210B240CA0
:10005000270D2A0E2D0F3110341137123A133D148B
:1000600040154316461749184C194F1A521B551C78
:10007000581D5B1E5E1F6120642167226A236D2468
:1000800070257326762779287C297F2A822B852C58
:10009000882D8B2E8E2F9230953198329B339E3443
:1000A000A135A436A737AA38AD39B03AB33BB63C30
:1000B000B93DBC3EBF3FC240C541C842CB43CE4420
:1000C000D145D446D747DA48DD49E04AE34BE64C10
:1000D000E94DEC4EEF4FF350F651F952FC53FF54FB
:1000E0000256055708580B590E5A115B145C175DE0
:1000F0001A5E1D5F20602361266229632C642F65D0
:100100003266356738683B693E6A416B446C476DBF
:100110004A6E4D6F5170547157725A735D746075A9
:100120006376667769786C796F7A727B757C787D97
:100130007B7E7E7F8180848187828A838D84908587
:100140009386968799889C899F8AA28BA58CA88D77
:10015000AB8EAE8FB290B591B892BB93BE94C19561
:10016000C496C797CA98CD99D09AD39BD69CD99D4F
:10017000DC9EDF9FE2A0E5A1E8A2EBA3EEA4F1A53F
:10018000F4A6F7A7FAA8FDA900AB03AC06AD09AE2B
:100190000CAF10B013B116B219B31CB41FB522B610
:1001A00025B728B82BB92EBA31BB34BC37BD3ABEFF
:1001B0003DBF40C043C146C249C34CC44FC552C6EF
:1001C00055C758C85BC95ECA61CB64CC67CD6ACEDF
:1001D0006DCF71D074D177D27AD37DD480D583D6C8
:1001E00086D789D88CD98FDA92DB95DC98DD9BDEB7
:1001F0009EDFA1E0A4E1A7E2AAE3ADE4B0E5B3E6A7
:10020000B6E7B9E8BCE9BFEAC2EBC5ECC8EDCBEE96
:10021000CEEFD2F0D5F1D8F2DBF3DEF4E1F5E4F67F
:10022000E7F7EAF8EDF9F0FAF3FBF6FCF9FDFCFE6E
:10023000FFFFFFFFB60D11241FBECFEFD4E0DEBFDE
:10024000CDBF11E0A0E0B1E0E4E3FDE102C0059024
:100250000D92A234B107D9F711E0A2E4B1E001C0D8
:100260001D92AE37B107E1F712E0C6E3D2E003C05A
:100270002297FE0159DDC433D107D1F740D5DCCC3C
:10028000BFCE5BE0589FD0011124AE5ABE4F41E073
:1002900012964C93129713964C9313972FE730E0D6
:1002A00015963C932E93149717961C921E921697B0
:1002B00084E190E019969C938E9318971A964C932C
:1002C000569FF0011124EE5AFE4F4283438335833B
:1002D00024831782168291878087428708955BE086
:1002E000589FD0011124AE5ABE4F42E012964C9353
:1002F000129713964C9313972FE730E015963C9383
:100300002E93149717961C921E92169784E190E0F4
:1003100019969C938E93189771E01A967C93569F2A
:10032000F0011124EE5AFE4F428343833583248328
:10033000178216829187808772870895613081F4D1
:100340009BE0899FF0011124EE5AFE4F1282138226
:100350008FE290E0958384831186108662870895EA
:10036000623051F49BE0899FF0011124EE5AFE4F58
:1003700021E0228313820CC0633069F49BE0899FE3
:10038000F0011124EE5AFE4F21E0228382E08383A4
:100390008FE290E00EC0643089F49BE0899FF00109
:1003A0001124EE5AFE4F21E0228382E0838387E10D
:1003B00090E0958384831186108622870895A1E0BA
:1003C000B0E0E4EEF1E086CC162F642F4983B6DF6F
:1003D0004981642F812FB2DF2196E3E097CC811110
:1003E00006C089B18295817091E08927089589B10D
:1003F0008095881F8827881F0895811105C086B1C0
:1004000083FB882780F904C086B182FB882780F9A6
:1004100091E089270895811108C0662319F05B983F
:10042000589A08955B9A58980895662319F05E9833
:100430005D9A08955E9A5D980895811103C05B9856
:10044000589808955E985D980895CF93DF93362F5E
:10045000642FFC01EB58FF4F5081DC01E0E0F0E03D
:10046000E51748F5ED01C759DF4F4881ED01C65941
:10047000DF4F431303C07881761729F07881731317
:1004800017C0461315C0EC01CE0FDF1FCD59DF4F4B
:10049000488142130DC0EE0FFF1FE80FF91FE95A04
:1004A000FF4F0190F081E02D422F832F099503C06B
:1004B00031961296D5CFDF91CF910895562FFC013A
:1004C000EA5AFF4F608120E030E02617E0F4FC019B
:1004D000E20FF31FDF01AA5BBF4F7C91751310C0C1
:1004E00076A974130DC0F9013B96EE0FFF1FE80FBC
:1004F000F91F0190F081E02D642F852F0995089553
:100500002F5F3F4FE2CF0895CF93DF93EC016881D7
:100510008981811162608A81811164608B8181117E
:1005200068608E81609590E0880F991F8FDB6C81E9
:100530008D81811162608E81609590E0880F991F96
:10054000019684DBDF91CF9108950F931F93CF9392
:10055000DF93082F10E097E0899FE0011124C8592C
:10056000DE4F888191E089278883CE01CDDF8881A5
:10057000882311F082E001C080E09BE0909FF001B1
:10058000919FF00D1124EE5AFE4F92E092838383E7
:100590008FE790E095838483178216828AE090E04B
:1005A0009187808781E08287DF91CF911F910F91A2
:1005B0000895FF920F931F93CF93DF93082F10E0BE
:1005C00097E0899FE0011124C859DE4F8D81FF24F7
:1005D000F3948F258D83CE0197DF8D8190E0019676
:1005E0009BE0909FF001919FF00D1124EE5AFE4F79
:1005F000F28292E093832FE730E0082E02C0359517
:1006000027950A94E2F735832483178216822AE01D
:1006100030E002C0220F331F8A95E2F7318720872E
:10062000F286CDB7DEB7E5E06FCBFF920F931F9355
:10063000CF93DF93082F10E097E0899FE00111240A
:10064000C859DE4F8981FF24F3948F258983CE0119
:100650005BDF89819BE0909FF001919FF00D112459
:10066000EE5AFE4FF28283838FE790E09583848376
:10067000178216828AE090E091878087F286CDB754
:10068000DEB7E5E041CBFF920F931F93CF93DF934B
:10069000082F10E097E0899FE0011124C859DE4F30
:1006A0008A81FF24F3948F258A83CE012DDF2A814E
:1006B0008BE0809FF001819FF00D1124EE5AFE4FD8
:1006C000F28282E083838FE790E0022E02C095954C
:1006D00087950A94E2F795838483178216828AE0CD
:1006E00090E002C0880F991F2A95E2F791878087D2
:1006F000F286CDB7DEB7E5E007CBFF920F931F93ED
:10070000CF93DF9390E037E0389FF001399FF00DF1
:100710001124E859FE4F238141E024272383062F2B
:1007200010E0222351F0309FF001319FF00D112491
:10073000E859FE4F238121111382F7E0FF2EF89E26
:10074000E001F99ED00D1124C859DE4FCE01DCDE48
:10075000F09EC001F19E900D112488599E4FD4DE69
:100760004B8150E0440F551F2FE730E0042E02C0AC
:10077000359527950A94E2F78AE090E002C0880F49
:10078000991F4A95E2F741E04093540110925501B8
:10079000309357012093560110925901109258013D
:1007A00090935B0180935A0140935C0110925F012A
:1007B00040936001309362012093610110926401C3
:1007C00010926301909366018093650140936701E5
:1007D000CDB7DEB7E5E098CAA1E0B0E0E1EFF3E025
:1007E00078CA082FECE6F1E0908111E09127908320
:1007F0009093730188E691E0698386DE8FE691E04D
:1008000083DE87E0089FF0011124E859FE4FE48160
:10081000F0E0EE0FFF1F4FE750E00E2E02C055959F
:1008200047950A94E2F724E130E002C0220F331F1B
:10083000EA95E2F79BE0909FD0011124AE5ABE4F9B
:1008400082E012968C93129713961C92139715962A
:100850005C934E93149717961C921E9216971996B6
:100860003C932E9318971A961C936981969FF001DA
:100870001124EE5AFE4F82831382558344831782DC
:1008800016823187208712872196E4E03ECA0F93B3
:100890001F93CF93DF93EC010E8110E0000F111F27
:1008A000C801CCD98095982F9170988381FB9927A6
:1008B00090F9998382FB992790F99A8383FB882783
:1008C00080F98B83C8010196B9D98095982F9170D2
:1008D0009C83869581708D83DF91CF911F910F91BD
:1008E0000895FC0180818F5F80839181891708F0D2
:1008F0001082828193810196811524E0920718F479
:10090000938382830895138212820895FC01462FF7
:100910008181861769F061838281938170E0681715
:10092000790708F4A1D980838081841708F01082A8
:10093000089590E0FC01E458FE4F1082FC01E65857
:10094000FE4F1082FC01E858FE4F10820895A1E08E
:10095000B0E0ECEAF4E0BEC9182F109268011092E2
:10096000690110926A0110926B0110926C01109251
:100970006D0110926F01109270011092710110922E
:100980007201109273011092740188E691E06983FC
:10099000BBDD8FE691E0B8DD80E0CBDF5BE0519F0F
:1009A000D0011124AE5ABE4F12961C92129741E00C
:1009B00013964C9313972FE730E015963C932E93A4
:1009C000149717961C921E92169784E190E0199640
:1009D0009C938E9318971A964C936981569FF001B9
:1009E0001124EE5AFE4F12824383358324831782EB
:1009F00016829187808742872196E3E087C9FC01B0
:100A0000208131816217730718F0621B730B0AC0D3
:100A1000FC0182819381821B930B6817790740F058
:100A2000680F791F81E06417750718F480E0089556
:100A300081E00895A0E0B0E0EFE1F5E046C9EC0107
:100A40008A018881811108C0662309F446C081E0CB
:100A500088835A83498348C0C984DA84CE010196C9
:100A60007C01A601440F551F662399F0B801C7DF2A
:100A7000811135C0A601B801C701C1DF811131C0A4
:100A80004F815885B801C701BADF882361F182E040
:100A90002BC0B801B4DF882319F0188288E024C085
:100AA000A601B801C701ABDF882319F0188287E0DF
:100AB0001BC04F815885B801C701A1DF882319F0F9
:100AC000188286E011C04D815E81B801C70197DFB1
:100AD0001882882311F085E007C080E005C084E01B
:100AE00003C083E001C081E0CDB7DEB7E8E009C90B
:100AF000A0E0B0E0EDE7F5E0E8C8EC01F62E642FE9
:100B00000F2D10E0A9012BE0F29E800D911D112404
:100B100091DFE82E0C0F1D1FF801EA58FF4F80836C
:100B2000FE01EB58FF4F40819E01E0E0F0E0E4174A
:100B3000D0F46901C90187599F4FDC016C916F1195
:100B400007C0F596EE0FFF1FEC0FFD1F608109C077
:100B500031962E5F3F4FD601A659BF4F8C918F1112
:100B6000E6CF6F3F29F44E2D6F2DCE01A7DC2DC0AF
:100B7000262F30E0FE01E858FF4F2C0F3D1FD90112
:100B8000AA58BF4F2C91EE2089F08081211107C017
:100B90008F3FB9F44E2D6F2DCE0190DC12C08F3FE8
:100BA00009F4608380818F1106C00BC0222339F0C5
:100BB00080818F3F31F04F2DCE0147DC02C08FEF97
:100BC0008083F801EA58FF4FE082CDB7DEB7E8E056
:100BD00098C85998089529980895811103C0F9DF9C
:100BE0005A9A0895F8DF289A08955A9808952898EF
:100BF0000895249A2C98549857985C9A5F9A3B9839
:100C00003A98439A429A539A509A519A529A569ABB
:100C1000559A219A209ADDDFDEDFE7DFE8DF1092C8
:100C2000800085E0809381000895811103C0D1DFA9
:100C3000DCDF0895D0DFDBDF0895811103C0599A0E
:100C4000D4DF0895299AD3DF08950F931F93CF938C
:100C5000DF93EC01162F1F3FE1F48A8191E0980F9A
:100C60009A8341E050E060E070E004C0440F551FFB
:100C7000661F771F8A95D2F74095509560957095BD
:100C80000881198120E030E040235123622373233F
:100C90001BC01E3F11F000E01AC08A8191E0980F3E
:100CA0009A8341E050E060E070E004C0440F551FBB
:100CB000661F771F8A95D2F70881198120E030E0FE
:100CC000402B512B622B732B5983488313C0FE0199
:100CD000E10FF11D17FDFA958585081734F46FEFC4
:100CE000610FCE01B2DF0F5FF2CF8381882311F055
:100CF0001250B1CFDF91CF911F910F910895A5EFC1
:100D0000B0E0E4E8F6E0D7C784B714BE8091600095
:100D1000886180936000109260006BDF80E009DEE4
:100D200081E007DE88E691E0B2DD8FE691E0AFDD9D
:100D3000CC54DF4F1882C45BD040CB54DF4F1882B5
:100D4000C55BD040CA54DF4F19821882C65BD040C1
:100D50008DEF9CE0C854DF4F99838883C85BD040F7
:100D6000C654DF4F1882CA5BD040C554DF4F18828B
:100D7000CB5BD040C454DF4F19821882CC5BD0408B
:100D8000C254DF4F99838883CE5BD0402AE431E0A0
:100D9000CA52DF4F39832883C65DD04041E051E01D
:100DA000C852DF4F59834883C85DD04060E2C652C5
:100DB000DF4F6883CA5DD0408EE491E0C552DF4FBB
:100DC00099838883CB5DD040C352DF4F59834883DA
:100DD000CD5DD040C152DF4F6883CF5DD040FE0172
:100DE000E658FF4F2193319327E1DF01322F1D9207
:100DF0003A95E9F7CD56DF4F19821882C359D04092
:100E0000CB56DF4F1882C559D040CA56DF4F1882E3
:100E1000C659D040C956DF4F99838883C759D040FF
:100E2000EAE7F0E0EC0FFD1F7F96DF011D922A95A7
:100E3000E9F7C055DF4F19821882C05BD040CE540D
:100E4000DF4F1882C25BD040CD54DF4F1882C35BA6
:100E5000D04019826FEF7FEF7D836C8340E450E0D8
:100E60005F834E8328E532E03987288784E195E067
:100E70009B878A871C86788B6F875A8B498B3C8B24
:100E80002B8B9E8B8D8B68961FAE6897E7961FAE57
:100E9000E7978FEFEA968FAFEA97AE014F5F5F4F0C
:100EA00060E0CA019E0125533F4F7BE0F901A72F67
:100EB0001192AA95E9F7AA24AA94BA2CF901B4824E
:100EC000A382A0E4CA2ED12CD682C582B8E5EB2E2F
:100ED000B2E0FB2EF086E78204E115E0128701877D
:100EE000DE01A054BF4F972E01900D929A94E1F726
:100EF000CD53DF4FB982A882C35CD040CB53DF4FC4
:100F0000D982C882C55CD040C953DF4FF982E882DC
:100F1000C75CD040C753DF4F19830883C95CD040FA
:100F2000FE01E054FF4FDA0101900D927A95E1F74E
:100F300068967FAD68977031D8F4E72FF0E0DE0156
:100F4000A95BBF4FAE0FBF1F6C93DE01AE0FBF1F7B
:100F500015E0D7961C933B96EE0FFF1FE80FF91F85
:100F6000A5EAB2E0B183A0837F5F68967FAF689700
:100F700068967FAD68977031D8F4E72FF0E0DE0116
:100F8000A95BBF4FAE0FBF1F6C93DE01AE0FBF1F3B
:100F900016E0D7961C933B96EE0FFF1FE80FF91F44
:100FA000A5E1B3E0B183A0837F5F68967FAF6897C8
:100FB00068967FAD68977031D8F4E72FF0E0DE01D6
:100FC000A95BBF4FAE0FBF1F6C93DE01AE0FBF1FFB
:100FD00017E0D7961C933B96EE0FFF1FE80FF91F03
:100FE000A9EDB2E0B183A0837F5F68967FAF689779
:100FF00068967FAD68977031D8F4E72FF0E0DE0196
:10100000A95BBF4FAE0FBF1F6C93DE01AE0FBF1FBA
:1010100018E0D7961C933B96EE0FFF1FE80FF91FC1
:10102000A3E4B3E0B183A0837F5F68967FAF689746
:1010300068967FAD68977031D8F4E72FF0E0DE0155
:10104000A95BBF4FAE0FBF1F6C93DE01AE0FBF1F7A
:1010500011E0D7961C933B96EE0FFF1FE80FF91F88
:10106000AEE9B1E0B183A0837F5F68967FAF6897F8
:1010700068967FAD68977031D8F4E72FF0E0DE0115
:10108000A95BBF4FAE0FBF1F6C93DE01AE0FBF1F3A
:1010900012E0D7961C933B96EE0FFF1FE80FF91F47
:1010A000AEE9B1E0B183A0837F5F68967FAF6897B8
:1010B00068967FAD68977031D8F4E72FF0E0DE01D5
:1010C000A95BBF4FAE0FBF1F6C93DE01AE0FBF1FFA
:1010D00013E0D7961C933B96EE0FFF1FE80FF91F06
:1010E000AEE9B1E0B183A0837F5F68967FAF689778
:1010F00068967FAD68977031D8F4E72FF0E0DE0195
:10110000A95BBF4FAE0FBF1F6C93DE01AE0FBF1FB9
:1011100014E0D7961C933B96EE0FFF1FE80FF91FC4
:10112000AEE9B1E0B183A0837F5F68967FAF689737
:101130006F5F455F5F4F623009F0B4CEAB961FAE74
:10114000AB9771E0AC967FAFAC97A5966FAFA597C4
:101150004FE651E06A965FAF4EAF6A97AD961FAE0D
:10116000AD97AE967FAFAE9766E0A6966FAFA697A7
:101170004CEE53E06C965FAF4EAF6C97AF961FAEE0
:10118000AF97E0967FAFE09743E0A7964FAFA79762
:101190004FED51E06E965FAF4EAF6E97E1961FAE8A
:1011A000E197E2967FAFE29747E0A8964FAFA89706
:1011B0004DE753E0A0965FAF4EAFA097E3961FAE0A
:1011C000E397E4967FAFE49744E0A9964FAFA997E1
:1011D00041E451E0A2965FAF4EAFA297FC01ED58FB
:1011E000FF4F1082FC01EC58FF4F708348E0AA9635
:1011F0004FAFAA97FC01EF59FF4F47EA54E05183E4
:101200004083E7966FAFE79780917A00876080937D
:101210007A0080917A00806880937A0080E68093DB
:10122000000180937C0080917A00806480937A0032
:10123000D9011C9211961C92CC51DF4F1882C45ECA
:10124000D040CB51DF4F1882C55ED040C651DF4F32
:101250001882CA5ED040212C312C21012394E090C9
:101260008400F090850080E0C8D89701482F60E0A6
:10127000CE0101963DDC81E0C0D89701482F61E0A6
:10128000CE01019635DC80917A0086FF1DC480E096
:10129000A6D8CE51DF4F8883C25ED040C052DF4F08
:1012A0008883C05ED04081E09AD8CD51DF4F8883DB
:1012B000C35ED040CF51DF4F8883C15ED0409E01D6
:1012C00020523F4FCD50DF4F39832883C35FD0403A
:1012D0008E010C541F4F2AE731E0CF50DF4F398386
:1012E0002883C15FD04024E431E0C151DF4F39830E
:1012F0002883CF5ED04026E731E0C351DF4F3983EA
:101300002883CD5ED040B2E46B2EB1E07B2E2AE480
:1013100031E0C851DF4F39832883C85ED0409E0139
:101320002C513F4FCA51DF4F39832883C65ED040CE
:101330002BE631E0C551DF4F39832883CB5ED040A7
:1013400082E5C82E81E0D82E812C912CCB50DF4F26
:101350008882C55FD040AA24A394A818CD50DF4F3F
:10136000A881B981C35FD040BD90CD50DF4FB98314
:10137000A883C35FD040F80181818B15F1F02281F1
:101380003381C701E216F30608F40197821B930B21
:10139000A0E0B0E0F8014481558160E070E021E018
:1013A00084179507A607B70708F420E0D80113961D
:1013B000FC92EE9212971C9224C0F8018081811158
:1013C0001FC082819381A701E816F90610F44150ED
:1013D0005109481B590B60E070E0D80114968D91BB
:1013E0009C911597A0E0B0E0481759076A077B0762
:1013F00038F0F801F382E28281E0808321E001C0CD
:1014000020E0D8011196BC92222359F1F3011082F9
:1014100013821282C851DF4FA881B981C85ED040C3
:101420001C9213961C921E921297CB50DF4F88810C
:10143000C55FD0407EDACB50DF4F8881C55FD0409A
:10144000FCD721E0F601228382E083838AE190E0E9
:1014500095838483178216828EE190E0918780873E
:101460002287BB2009F459C0CF50DF4FA881B98132
:10147000C15FD0408C91811150C0C351DF4FE881D2
:10148000F981CD5ED0408081811130C0C151DF4FE4
:10149000A881B981CF5ED0408D919C918F709927A2
:1014A000892B21F5CA51DF4FE881F981C65ED04012
:1014B000808181112AC3C551DF4FE881F981CB5E5C
:1014C000D0408081882391F081E0CA51DF4FA8810C
:1014D000B981C65ED0408C938A2D90E0FC01E4581F
:1014E000FE4FDC01A858BE4F8C918083C151DF4F65
:1014F000E881F981CF5ED040808191818F709927FA
:1015000021E0892B09F020E0C351DF4FA881B98188
:10151000CD5ED0402C93C301E4D9CF50DF4FE8819A
:10152000F981C15FD040B192CF50DF4FF983E8839A
:10153000C15FD040FFEF8F1A9F0A0A5F1F4FC15152
:10154000DF4F28813981CF5ED0402C5F3F4FC151A2
:10155000DF4F39832883CF5ED040C351DF4F2881CE
:101560003981CD5ED0402F5F3F4FC351DF4F39836C
:101570002883CD5ED04034E0630E711CC851DF4F2C
:1015800028813981C85ED0402C5F3F4FC851DF4F62
:1015900039832883C85ED0403BE0C30ED11CCA51BA
:1015A000DF4F28813981C65ED0402F5F3F4FCA513F
:1015B000DF4F39832883C65ED040C551DF4F288175
:1015C0003981CB5ED040295F3F4FC551DF4F398312
:1015D0002883CB5ED04032E08316910409F0B6CE6A
:1015E00072016101712C662463946718CB51DF4F3F
:1015F0008881C55ED040811107C0CA51DF4F688223
:10160000C65ED040672C05C0CA51DF4F7882C65EE7
:10161000D040062D10E0E2EEF0E0EC0FFD1FE00FF1
:10162000F11F8081F801E458FE4F882309F48AC134
:1016300080818111ACC187E0809FF001819FF00D16
:101640001124E859FE4F8281882309F449C060E1E2
:10165000C801880F991F880F991F865B9E4F56D926
:10166000FE01E553FF4FE00FF11F208126952695DF
:101670002695DE01AA52BF4F35E0309FC001319F51
:10168000900D1124A80FB91F14968C911497281748
:1016900010F02FEF280F12969C91129713968C91B1
:1016A0001397E92FF82FE20FF11DE20FF11D2081B2
:1016B0003181ED91FC9180814181442319F04150A9
:1016C000481B01C040E081E090E002C0880F991FF4
:1016D0004A95E2F782239323BB24B394892B09F420
:1016E000B12C87E0809FF001819FF00D1124E85913
:1016F000FE4F8481882309F4ADC0C553DF4F888134
:10170000CB5CD04080958F3F41F090E0019663E044
:10171000959587956A95E1F701C080E290E09595EF
:101720008795582FC453DF4F2881CC5CD04020953B
:101730002F3F61F0822E912CAFEF8A1A9A0A43E074
:10174000959487944A95E1F7282D01C020E2822ED6
:10175000912C95948794482D5E01BAE7AB0EB11C8D
:101760006DE1609F9001619F300D1124A20EB31EA8
:10177000F501248D251304C0238D281509F445C0D7
:10178000D5015B968C925B975C968C935C971396D5
:101790001C921E92129714961C921497552331F1A5
:1017A000442321F1282D281B15968C9340E0822F8D
:1017B000992787FD9095F501E40FF11D47FDFA95F6
:1017C0006581772767FD709563D26787868325815A
:1017D0004F5FF501E40FF11D47FDFA9585818230D9
:1017E00034F72787642FC50102962FDAF50182812D
:1017F000938187FD05C0009719F0880F991FF9CFD5
:10180000D5015A969C938E935997682DC801880FDD
:10181000991F880F991F865B9E4F78D8D501ED914F
:10182000FC9180812181222319F02150281B01C0C5
:1018300020E081E090E002C0880F991F2A95E2F72E
:10184000F501218D328D82239323BB24B394892B00
:1018500009F4B12C87E0809FF001819FF00D1124E5
:10186000E859FE4F8281811118C08481811115C011
:10187000FE01E553FF4FE00FF11FE081F0E0EE0FB6
:10188000FF1FEC5CFF4F85919491C816D90620F09C
:10189000BB24B394019609F4B12C87E0809FF0013A
:1018A000819FF00D1124E859FE4F8081F801E8581E
:1018B000FE4F882311F08081B82687E0809FD001F9
:1018C000819FB00D1124A859BE4F15968C91882385
:1018D00029F0B11003C0B08081E0B826B0826B2D32
:1018E000862D99D587E0809FF001819FF00D11240E
:1018F000E859FE4F2181BB2011F081E001C082E058
:101900009BE0909FF001919FF00D1124EE5AFE4F45
:10191000928591110EC08183828383838EE790E04C
:10192000958384831782168281E0822790E09187D5
:101930008087C801880F991F880F991F865B9E4F6B
:10194000D0D726C08081882311F187E0809FF001E5
:10195000819FF00D1124E859FE4F8181811117C03C
:10196000862D6BD5E4EEF0E0EC0FFD1FE00FF11FCC
:101970008081882361F0E2EEF0E0EC0FFD1FCA5198
:10198000DF4F2881C65ED040E20FF11D1082B12CDE
:10199000E4EEF0E0EC0FFD1FE00FF11F80818823E3
:1019A00061F0E2EEF0E0EC0FFD1FCA51DF4F38812D
:1019B000C65ED040E30FF11DB082F801E458FE4F3F
:1019C000A2EEB0E0AC0FBD1FA00FB11F8C918083C1
:1019D0006701EE24FF24739482E0781204CE02E5BE
:1019E00011E0E12CF12CD80116962D913C9117971E
:1019F00014968D919C911597AC0156954795F701DA
:101A0000EE5AFE4F2417350710F0428101C0438182
:101A10002F5F3F4FD80117963C932E9316972817A8
:101A20003907D8F017961C921E92169718968D912A
:101A30009C911997009789F0019719969C938E9322
:101A400018978330910548F412821382892B29F468
:101A500015961C921E9214971286411104C0F8012B
:101A60008081E3D809C0423021F4D8018C91B5D8E7
:101A700003C0F8018081E1D8FBE0EF0EF11C055FA7
:101A80001F4F26E1E216F10409F0ADCFD201C101EA
:101A9000B695A79597958795B201A10141705527F5
:101AA00066277727222433242101241A350A460A7F
:101AB000570A31E023223324442430ED53222826D0
:101AC00039264A265B26CBCB90917900FE01E5535F
:101AD000FF4F81E0C651DF4FA881CA5ED0408A1B0C
:101AE000E80FF11D9083AF5FA170C651DF4FA8834F
:101AF000CA5ED040809100018A2B80937C00809147
:101B00007A00806480937A00C2CBC551DF4FE881B0
:101B1000F981CB5ED04080818111E8CC8A2D90E0A4
:101B2000FC01EE0FFF1FEE0FFF1FDF01AE5BBE4F8C
:101B3000E65BFE4F2C91208311962C911197218307
:101B400012962D913C91139733832283FC01E45824
:101B5000FE4FDC01A658BE4F8C918083CA51DF4FE7
:101B6000A881B981C65ED0401C92C0CC1092680199
:101B70001092690110926A0110926B0110926C012F
:101B800010926D0110926E0110926F01109270010F
:101B900010927101109272011092730110927401EF
:101BA00081E08093750110925201109254011092BD
:101BB000550110925701109256011092590110923E
:101BC000580110925B0110925A0110925C018093AF
:101BD0005D0110925F0110926001109262011092FB
:101BE00061011092640110926301109266011092DB
:101BF00065011092670110924A0110924B011092F8
:101C00004D0110924C0110924E0110924F01109212
:101C10005101109250011092420110924301109212
:101C20004501109244011092460110924701109212
:101C30004901109248010895F8947AC0F999FECFAD
:101C400092BD81BDF89A992780B50895262FF999FC
:101C5000FECF1FBA92BD81BD20BD0FB6F894FA9A8F
:101C6000F99A0FBE01960895AA1BBB1B51E107C04C
:101C7000AA1FBB1FA617B70710F0A61BB70B881F1C
:101C8000991F5A95A9F780959095BC01CD010895AB
:101C900097FB072E16F4009406D077FD08D0E4DFFA
:101CA00007FC05D03EF4909581959F4F089570955F
:101CB00061957F4F08952F923F924F925F926F925E
:101CC0007F928F929F92AF92BF92CF92DF92EF92CC
:101CD000FF920F931F93CF93DF93CDB7DEB7CA1B4D
:101CE000DB0B0FB6F894DEBF0FBECDBF09942A8878
:101CF000398848885F846E847D848C849B84AA8420
:101D0000B984C884DF80EE80FD800C811B81AA81AC
:101D1000B981CE0FD11D0FB6F894DEBF0FBECDBF77
:101D2000ED010895EE0FFF1F0590F491E02D099449
:041D3000F894FFCF55
:101D340040FFFF00FFF0F0CCCC008080808888AAB0
:101D4400AA55557777F5F55555B5B56F6F09094916
:101D5400492549DBDBDF7611A919D5C16F01D149CA
:101D6400528C8CBCDDABAA6CDB8C8C8A880F000097
:021D740000006D
:00000001FF
