:100000001AC13EC13DC13CC13BC13AC139C138C131
:1000100037C136C135C134C133C132C131C130C13C
:100020002FC12EC12DC12CC12BC12AC129C128C16C
:1000300027C126C1000000000301060209030C04C9
:100040000F051206150718081B091E0A210B240CA0
:10005000270D2A0E2D0F3110341137123A133D148B
:1000600040154316461749184C194F1A521B551C78
:10007000581D5B1E5E1F6120642167226A236D2468
:1000800070257326762779287C297F2A822B852C58
:10009000882D8B2E8E2F9230953198329B339E3443
:1000A000A135A436A737AA38AD39B03AB33BB63C30
:1000B000B93DBC3EBF3FC240C541C842CB43CE4420
:1000C000D145D446D747DA48DD49E04AE34BE64C10
:1000D000E94DEC4EEF4FF350F651F952FC53FF54FB
:1000E0000256055708580B590E5A115B145C175DE0
:1000F0001A5E1D5F20602361266229632C642F65D0
:100100003266356738683B693E6A416B446C476DBF
:100110004A6E4D6F5170547157725A735D746075A9
:100120006376667769786C796F7A727B757C787D97
:100130007B7E7E7F8180848187828A838D84908587
:100140009386968799889C899F8AA28BA58CA88D77
:10015000AB8EAE8FB290B591B892BB93BE94C19561
:10016000C496C797CA98CD99D09AD39BD69CD99D4F
:10017000DC9EDF9FE2A0E5A1E8A2EBA3EEA4F1A53F
:10018000F4A6F7A7FAA8FDA900AB03AC06AD09AE2B
:100190000CAF10B013B116B219B31CB41FB522B610
:1001A00025B728B82BB92EBA31BB34BC37BD3ABEFF
:1001B0003DBF40C043C146C249C34CC44FC552C6EF
:1001C00055C758C85BC95ECA61CB64CC67CD6ACEDF
:1001D0006DCF71D074D177D27AD37DD480D583D6C8
:1001E00086D789D88CD98FDA92DB95DC98DD9BDEB7
:1001F0009EDFA1E0A4E1A7E2AAE3ADE4B0E5B3E6A7
:10020000B6E7B9E8BCE9BFEAC2EBC5ECC8EDCBEE96
:10021000CEEFD2F0D5F1D8F2DBF3DEF4E1F5E4F67F
:10022000E7F7EAF8EDF9F0FAF3FBF6FCF9FDFCFE6E
:10023000FFFFFFFF6D0D11241FBECFEFD4E0DEBF27
:10024000CDBF11E0A0E0B1E0E2EAFCE102C0059020
:100250000D92A234B107D9F711E0A2E4B1E001C0D8
:100260001D92A038B107E1F712E0C6E3D2E003C067
:100270002297FE0110DDC433D107D1F757D593CCB7
:10028000BFCE5BE0589FD0011124AE5ABE4F41E073
:1002900012964C93129713964C9313972FE730E0D6
:1002A00015963C932E93149717961C921E921697B0
:1002B00084E190E019969C938E9318971A964C932C
:1002C000569FF0011124EE5AFE4F4283438335833B
:1002D00024831782168291878087428708955BE086
:1002E000589FD0011124AE5ABE4F42E012964C9353
:1002F000129713964C9313972FE730E015963C9383
:100300002E93149717961C921E92169784E190E0F4
:1003100019969C938E93189771E01A967C93569F2A
:10032000F0011124EE5AFE4F428343833583248328
:10033000178216829187808772870895613081F4D1
:100340009BE0899FF0011124EE5AFE4F1282138226
:100350008FE290E0958384831186108662870895EA
:10036000623051F49BE0899FF0011124EE5AFE4F58
:1003700021E0228313820CC0633069F49BE0899FE3
:10038000F0011124EE5AFE4F21E0228382E08383A4
:100390008FE290E00EC0643089F49BE0899FF00109
:1003A0001124EE5AFE4F21E0228382E0838387E10D
:1003B00090E0958384831186108622870895A1E0BA
:1003C000B0E0E4EEF1E03DCC162F642F4983B6DFB8
:1003D0004981642F812FB2DF2196E3E04ECC811159
:1003E00006C089B18295817091E08927089589B10D
:1003F0008095881F8827881F0895811105C086B1C0
:1004000083FB882780F904C086B182FB882780F9A6
:1004100091E089270895811108C0662319F05B983F
:10042000589A08955B9A58980895662319F05E9833
:100430005D9A08955E9A5D980895811103C05B9856
:10044000589808955E985D980895CF93DF93362F5E
:10045000642FFC01E858FF4F5081DC01E0E0F0E040
:10046000E51740F5ED01C459DF4F4881ED01C3594F
:10047000DF4F431303C07881761729F07881731317
:1004800016C0461314C0EC01CE0FDF1FCA59DF4F50
:10049000488142130CC0BD96EE0FFF1FE80FF91FF5
:1004A0000190F081E02D422F832F099503C03196F2
:1004B0001296D6CFDF91CF910895562FFC01E75ABF
:1004C000FF4F608120E030E02617D8F4FC01E20FF6
:1004D000F31FDF01A75BBF4F7C9175130FC071AD98
:1004E00074130CC0F901EE0FFF1FE80FF91F018C08
:1004F000F28DE02D642F852F099508952F5F3F4FD2
:10050000E3CF0895CF93DF93EC0168818981811156
:1005100062608A81811164608B81811168608E8143
:10052000609590E0880F991F48DB6C818D81811167
:1005300062608E81609590E0880F991F01963DDB87
:10054000DF91CF9108950F931F93CF93DF93082FDF
:1005500010E097E0899FE0011124C859DE4F88819F
:1005600091E089278883CE01CDDF8881882311F02F
:1005700082E001C080E09BE0909FF001919FF00D30
:100580001124EE5AFE4F92E0928383838FE790E02E
:1005900095838483178216828AE090E09187808712
:1005A00081E08287DF91CF911F910F910895FF9293
:1005B0000F931F93CF93DF93082F10E097E0899F4D
:1005C000E0011124C859DE4F8D81FF24F3948F255B
:1005D0008D83CE0197DF8D8190E001969BE0909F07
:1005E000F001919FF00D1124EE5AFE4FF28292E03D
:1005F00093832FE730E0082E02C0359527950A94A3
:10060000E2F735832483178216822AE030E002C0A5
:10061000220F331F8A95E2F731872087F286CDB704
:10062000DEB7E5E028CBFF920F931F93CF93DF93C4
:10063000082F10E097E0899FE0011124C859DE4F90
:100640008981FF24F3948F258983CE015BDF898123
:100650009BE0909FF001919FF00D1124EE5AFE4F08
:10066000F28283838FE790E09583848317821682DA
:100670008AE090E091878087F286CDB7DEB7E5E02B
:10068000FACAFF920F931F93CF93DF93082F10E0C6
:1006900097E0899FE0011124C859DE4F8A81FF2429
:1006A000F3948F258A83CE012DDF2A818BE0809FF2
:1006B000F001819FF00D1124EE5AFE4FF28282E08C
:1006C00083838FE790E0022E02C0959587950A9468
:1006D000E2F795838483178216828AE090E002C055
:1006E000880F991F2A95E2F791878087F286CDB708
:1006F000DEB7E5E0C0CAFF920F931F93CF93DF935D
:1007000090E037E0389FF001399FF00D1124E8594F
:10071000FE4F238141E024272383062F10E022236C
:1007200051F0309FF001319FF00D1124E859FE4F38
:10073000238121111382F7E0FF2EF89EE001F99E3C
:10074000D00D1124C859DE4FCE01DCDEF09EC00171
:10075000F19E900D112488599E4FD4DE4B8150E0BC
:10076000440F551F2FE730E0042E02C03595279522
:100770000A94E2F78AE090E002C0880F991F4A9538
:10078000E2F741E040935401109255013093570134
:1007900020935601109259011092580190935B01D9
:1007A00080935A0140935C0110925F014093600175
:1007B00030936201209361011092640110926301F1
:1007C000909366018093650140936701CDB7DEB7D2
:1007D000E5E051CAA1E0B0E0EFEEF3E031CA082F46
:1007E000ECE6F1E0908111E0912790839093730102
:1007F00088E691E0698386DE8FE691E083DE87E01C
:10080000089FF0011124E859FE4FE481F0E0EE0F5B
:10081000FF1F4FE750E00E2E02C0559547950A94F2
:10082000E2F724E130E002C0220F331FEA95E2F73D
:100830009BE0909FD0011124AE5ABE4F82E01296E9
:100840008C93129713961C92139715965C934E9364
:10085000149717961C921E92169719963C932E93F6
:1008600018971A961C936981969FF0011124EE5AED
:10087000FE4F828313825583448317821682318709
:10088000208712872196E4E0F7C90F931F93CF9337
:10089000DF93EC010E8110E0000F111FC80185D914
:1008A0008095982F9170988381FB992790F999836F
:1008B00082FB992790F99A8383FB882780F98B83A1
:1008C000C801019672D98095982F91709C83869566
:1008D00081708D83DF91CF911F910F910895FC015D
:1008E00080818F5F80839181891708F010828281D7
:1008F00093810196811524E0920718F493838283F3
:100900000895138212820895FC01462F8181861773
:1009100069F061838281938170E06817790708F438
:100920005AD980838081841708F01082089590E05E
:10093000FC01E258FE4F1082FC01E458FE4F108289
:10094000FC01E658FE4F1082FC01E858FE4F108271
:10095000FC01EA58FE4F10820895A1E0B0E0E2EBFE
:10096000F4E06FC9182F109268011092690110927B
:100970006A0110926B0110926C0110926D0110923D
:100980006F01109270011092710110927201109219
:1009900073011092740188E691E06983B3DD8FE6FC
:1009A00091E0B0DD80E0C3DF5BE0519FD001112416
:1009B000AE5ABE4F12961C92129741E013964C937A
:1009C00013972FE730E015963C932E9314971796C4
:1009D0001C921E92169784E190E019969C938E9338
:1009E00018971A964C936981569FF0011124EE5A7C
:1009F000FE4F1282438335832483178216829187A8
:100A0000808742872196E3E038C9FC01208131814B
:100A10006217730718F0621B730B0AC0FC01828116
:100A20009381821B930B6817790740F0680F791F39
:100A300081E06417750718F480E0089581E0089557
:100A4000A0E0B0E0E5E2F5E0F7C8EC018A018881BA
:100A5000811108C0662309F446C081E088835A8367
:100A6000498348C0C984DA84CE0101967C01A6017D
:100A7000440F551F662399F0B801C7DF811135C0B7
:100A8000A601B801C701C1DF811131C04F8158856E
:100A9000B801C701BADF882361F182E02BC0B80139
:100AA000B4DF882319F0188288E024C0A601B801B9
:100AB000C701ABDF882319F0188287E01BC04F8184
:100AC0005885B801C701A1DF882319F0188286E094
:100AD00011C04D815E81B801C70197DF188288235C
:100AE00011F085E007C080E005C084E003C083E02A
:100AF00001C081E0CDB7DEB7E8E0BAC8A0E0B0E061
:100B0000E3E8F5E099C8EC01F62E642F488D80E00B
:100B100090E0782F841740F40196FE01E80FF91F4A
:100B200055895F11F6CF01C07FEFA901CE012BE0FF
:100B3000729F800D911D112483DFE82E8E010F0D11
:100B4000111DF801E758FF4F8083FE01E858FF4F61
:100B50004081FE0120E030E02417E0F46F01CF0176
:100B600084599F4FDC016C916F1109C0220F331F14
:100B70002C0F3D1FF901E359FF4F608109C02F5F22
:100B80003F4F3296D601A359BF4F8C918F11E4CFBE
:100B90006F3F29F44E2D6F2DCE018FDC2DC0262FF7
:100BA00030E0FE01E558FF4F2C0F3D1FD901A7583B
:100BB000BF4F2C91EE2089F08081211107C08F3F1B
:100BC000B9F44E2D6F2DCE0178DC12C08F3F09F4A1
:100BD000608380818F1106C00BC0222339F0808191
:100BE0008F3F31F04F2DCE0130DC02C08FEF80837C
:100BF000F801E758FF4FE082CDB7DEB7E8E038C82C
:100C00005998089529980895811103C0F9DF5A9AD7
:100C10000895F8DF289A08955A9808952898089515
:100C2000249A2C98549857985C9A5F9A3B983A98D3
:100C3000439A429A539A509A519A529A569A559A6E
:100C4000219A209ADDDFDEDFE7DFE8DF1092800007
:100C500085E0809381000895811103C0D1DFDCDF3E
:100C60000895D0DFDBDF0895811103C0599AD4DFE6
:100C70000895299AD3DF08950F931F93CF93DF939D
:100C8000EC01162F1F3FE1F48A8191E0980F9A83BF
:100C900041E050E060E070E004C0440F551F661F63
:100CA000771F8A95D2F74095509560957095088189
:100CB000198120E030E040235123622373231BC0BD
:100CC0001E3F11F000E01AC08A8191E0980F9A83CC
:100CD00041E050E060E070E004C0440F551F661F23
:100CE000771F8A95D2F70881198120E030E0402BE8
:100CF000512B622B732B5983488313C0FE01E10FE4
:100D0000F11D17FDFA958585081734F46FEF610F13
:100D1000CE01B2DF0F5FF2CF8381882311F0125032
:100D2000B1CFDF91CF911F910F910895A4EFB0E063
:100D3000EBE9F6E077C784B714BE80916000886164
:100D400080936000109260006BDF80E0F0DD81E056
:100D5000EEDD88E691E099DD8FE691E096DD21E019
:100D6000C954DF4F2883C75BD040C854DF4F188277
:100D7000C85BD040C754DF4F19821882C95BD0408E
:100D800085E199E0C554DF4F99838883CB5BD040E0
:100D9000C354DF4F2883CD5BD040C254DF4F18824D
:100DA000CE5BD040C154DF4F19821882CF5BD04058
:100DB000CF53DF4F99838883C15CD0402AE431E070
:100DC000C752DF4F39832883C95DD04041E051E0ED
:100DD000C552DF4F59834883CB5DD04060E2C35298
:100DE000DF4F6883CD5DD0408EE491E0C252DF4F8B
:100DF00099838883CE5DD040C052DF4F59834883AA
:100E0000C05ED040CE51DF4F6883C25ED040FE014D
:100E1000E358FF4F2193319327E1DF01322F1D92D9
:100E20003A95E9F7CA56DF4F19821882C659D04061
:100E3000C856DF4F1882C859D040C756DF4F1882B6
:100E4000C959D040C656DF4F99838883CA59D040CC
:100E5000EDE7F0E0EC0FFD1F7F96DF011D922A9574
:100E6000E9F7CD54DF4F19821882C35BD040CB54D1
:100E7000DF4F1882C55BD040CA54DF4F1882C65B73
:100E8000D04019826FEF7FEF7D836C8340E450E0A8
:100E90005F834E8328E532E03987288784E195E037
:100EA0009B878A871C86788B6F875A8B498B3C8BF4
:100EB0002B8B9E8B8D8B198E6B961FAE6B97EA9644
:100EC0001FAEEA9720E0CE0182539F4FBBE0DB2E9E
:100ED000FC013D2D11923A95E9F7EE24EA94FE2C9F
:100EE000DC011496FC92EE92139700E410E0169643
:100EF0001C930E93159768E572E018967C936E9399
:100F0000179744E155E01A965C934E931997FC01AC
:100F1000DE01AD53BF4F3D2D01900D923A95E1F7A3
:100F2000398D323090F5E32FF0E0DE01AE0FBF1FB8
:100F300057962C93CA53DF4FF982E882C65CD040A3
:100F4000C853DF4F19830883C85CD040C653DF4FB6
:100F500079836883CA5CD040C453DF4F5983488388
:100F6000CC5CD040DE9EA001DF9E500D1124DE013E
:100F70001196A40FB51F4BE0FE01ED53FF4F0190FA
:100F80000D924A95E1F73F5F398F6B963FAD6B97B6
:100F90003031D0F4E32FF0E0DE01A65BBF4FAE0F9F
:100FA000BF1F2C93DE01AE0FBF1F45E0DA964C93B6
:100FB000EE0FFF1FEC0FFD1F43EA52E0538F428FED
:100FC0003F5F6B963FAF6B976B963FAD6B97303142
:100FD000D0F4E32FF0E0DE01A65BBF4FAE0FBF1FE2
:100FE0002C93DE01AE0FBF1F46E0DA964C93EE0F56
:100FF000FF1FEC0FFD1F43E153E0538F428F3F5F14
:101000006B963FAF6B976B963FAD6B973031D0F4DB
:10101000E32FF0E0DE01A65BBF4FAE0FBF1F2C93A6
:10102000DE01AE0FBF1F47E0DA964C93EE0FFF1FB5
:10103000EC0FFD1F47ED52E0538F428F3F5F6B96E1
:101040003FAF6B976B963FAD6B973031D0F4E32F8A
:10105000F0E0DE01A65BBF4FAE0FBF1F2C93DE0199
:10106000AE0FBF1F48E0DA964C93EE0FFF1FEC0F58
:10107000FD1F41E453E0538F428F3F5F6B963FAFBC
:101080006B976B963FAD6B973031D0F4E32FF0E068
:10109000DE01A65BBF4FAE0FBF1F2C93DE01AE0F6C
:1010A000BF1F41E0DA964C93EE0FFF1FEC0FFD1FC0
:1010B0004EE951E0538F428F3F5F6B963FAF6B9786
:1010C0006B963FAD6B973031D0F4E32FF0E0DE014B
:1010D000A65BBF4FAE0FBF1F2C93DE01AE0FBF1F2D
:1010E00042E0DA964C93EE0FFF1FEC0FFD1F4EE926
:1010F00051E0538F428F3F5F6B963FAF6B976B967C
:101100003FAD6B973031D0F4E32FF0E0DE01A65B0A
:10111000BF4FAE0FBF1F2C93DE01AE0FBF1F43E0CA
:10112000DA964C93EE0FFF1FEC0FFD1F4EE951E0D6
:10113000538F428F3F5F6B963FAF6B976B963FAD80
:101140006B973031D0F4E32FF0E0DE01A65BBF4FA8
:10115000AE0FBF1F2C93DE01AE0FBF1F44E0DA9627
:101160004C93EE0FFF1FEC0FFD1F4EE951E0538F24
:10117000428F3F5F6B963FAF6B972F5F223009F036
:10118000A2CEAE961FAEAE9741E0AF964FAFAF97EF
:10119000A8962FAFA8972FE631E06D963FAF2EAF00
:1011A0006D97E0961FAEE097E1964FAFE19756E05E
:1011B000A9965FAFA9972AEE33E06F963FAF2EAFA7
:1011C0006F97E2961FAEE297E3964FAFE39723E067
:1011D000AA962FAFAA972FED31E0A1963FAF2EAF81
:1011E000A197E4961FAEE497E5964FAFE59727E009
:1011F000AB962FAFAB972BE733E0A3963FAF2EAF65
:10120000A397E6961FAEE697E7964FAFE79724E0E1
:10121000AC962FAFAC9721E431E0A5963FAF2EAF4F
:10122000A597E8961FAEE897E9964FAFE99728E0B3
:10123000AD962FAFAD972DEA34E0A7963FAF2EAF16
:10124000A797EA965FAFEA9720917A0027602093EC
:101250007A0020917A00206820937A0020E620937B
:10126000000120937C0020917A00206420937A0072
:10127000FC0110821182712CC12CD12C7601C394F7
:10128000A0908400B090850080E0B7D89501482FE9
:1012900060E0CE01019632DC81E0AFD89501482FA5
:1012A00061E0CE0101962ADC80917A0086FFC8C3F6
:1012B00080E095D8CB51DF4F8883C55ED040CD51BB
:1012C000DF4F8883C35ED04081E089D8CA51DF4FA9
:1012D0008883C65ED040CC51DF4F8883C45ED04047
:1012E0009E012D513F4FCF50DF4F39832883C15F7F
:1012F000D0408E0109541F4F2CE731E0C151DF4F20
:1013000039832883CF5ED040E2E42E2EE1E03E2EEA
:1013100024E431E088E791E0C751DF4F9983888367
:10132000C95ED040AAE4B1E0C951DF4FB983A883B8
:10133000C75ED040F2E58F2EF1E09F2EC551DF4F02
:10134000C882D982EA82FB82CB5ED040512CCF503A
:10135000DF4FE881F981C15FD0406190CF50DF4F0E
:10136000F983E883C15FD040D8018C91882349F08C
:101370001396BC92AE92129711966C9211971C9292
:101380006DC0F8018181861509F468C0828193815E
:10139000A501A816B90610F441505109481B590B74
:1013A00060E070E0D80114968D919C911597A0E0B3
:1013B000B0E044244394F8014082481759076A0773
:1013C0007B0708F44BC0D1011C9213961C921E920D
:1013D0001297C951DF4FE881F981C75ED040108272
:1013E00013821282852DCD50DF4F2883C35FD040FA
:1013F000CC50DF4F3883C45FD04099DAD4011296C5
:101400004C92129782E013968C9313978AE190E0A6
:1014100015969C938E93149717961C921E9216976E
:101420008EE190E019969C938E9318971A964C92A1
:1014300081E090E0A0E0B0E0C551DF4F8883998360
:10144000AA83BB83CB5ED040CC50DF4F3881C45FD2
:10145000D040CD50DF4F2881C35FD040C751DF4F10
:10146000A881B981C95ED0408C91811125C0F90154
:10147000808191818F709927892BF1F48091760179
:101480008111F7C280916B01882339F081E080934C
:10149000760180917B0180937F019091770180910B
:1014A0007201911101C3882339F081E080937701A3
:1014B00080917A0180937E01D9018D919C918F70EA
:1014C000992741E0892B09F040E0C751DF4FE881BF
:1014D000F981C95ED04040836620F9F0C151DF4FE9
:1014E000A881B981CF5ED0408C91811116C0C10115
:1014F000CD50DF4F2883C35FD040CC50DF4F3883BF
:10150000C45FD040ECD9CC50DF4F3881C45FD040AD
:10151000CD50DF4F2881C35FD040C151DF4FE881FC
:10152000F981CF5ED0406192C151DF4FF983E883EA
:10153000CF5ED04053940A5F1F4FF4E02F0E311C52
:101540002C5F3F4FC751DF4F88819981C95ED040E2
:101550000196C751DF4F99838883C95ED040C95136
:10156000DF4FA881B981C75ED0401496C951DF4FC3
:10157000B983A883C75ED040BBE08B0E911CE2E02C
:101580005E12E5CE612C4424439446188091770185
:10159000811103C0542C462C01C0562C042D10E0A0
:1015A000E5EEF0E0EC0FFD1FE00FF11F8081F80188
:1015B000E258FE4F882309F483C1808181119DC1C7
:1015C00087E0809FF001819FF00D1124E859FE4FC4
:1015D0008281882309F449C060E1C801880F991FFE
:1015E000880F991F865B9E4F8FD9FE01E253FF4FF4
:1015F000E00FF11F2081269526952695DE01A75242
:10160000BF4F35E0309FC001319F900D1124A80FCE
:10161000B91F14968C911497281710F02FEF280FEC
:1016200012969C91129713968C911397E92FF82F8D
:10163000E20FF11DE20FF11D20813181ED91FC914E
:1016400080814181442319F04150481B01C040E092
:1016500081E090E002C0880F991F4A95E2F782234B
:101660009323BB24B394892B09F4B12C87E0809F8A
:10167000F001819FF00D1124E859FE4F84818823E9
:1016800009F4A6C0C253DF4F2881CE5CD04020951C
:101690002F3F49F030E02F5F3F4F63E035952795AE
:1016A0006A95E1F701C020E230E035952795522F89
:1016B000C153DF4F8881CF5CD04080958F3F61F070
:1016C000882E912CFFEF8F1A9F0A43E09594879400
:1016D0004A95E1F7882D01C080E2882E912C9594DF
:1016E0008794482D5E018DE7A80EB11C6DE1609FC7
:1016F000C001619F900D1124A80EB91ED5015C9602
:101700008C915C97851304C05B968C918815D9F1F8
:10171000F501838E248F138212821482552321F1C6
:10172000442311F1882D821B258320E0992787FD12
:101730009095F501E20FF11D27FDFA956581772758
:1017400067FD70955CD26787868385812F5FF50181
:10175000E20FF11D27FDFA95958192303CF78787BE
:10176000622FC501029688DAD50112968D919C915F
:10177000139787FD05C0009719F0880F991FF9CFBF
:10178000F501928F818F682DC801880F991F880FEE
:10179000991F865B9E4FB8D8D501ED91FC91808151
:1017A0002181222319F02150281B01C020E081E073
:1017B00090E002C0880F991F2A95E2F7F501218D6C
:1017C000328D82239323BB24B394892B09F4B12C4B
:1017D00087E0809FF001819FF00D1124E859FE4FB2
:1017E0008281811118C08481811115C0FE01E253EC
:1017F000FF4FE00FF11FE081F0E0EE0FFF1FEC5C08
:10180000FF4F85919491C816D90620F0BB24B3945C
:10181000019609F4B12C87E0809FF001819FF00DC3
:101820001124E859FE4F8081F801E658FE4F8823C5
:1018300011F08081B82687E0809FD001819FB00D94
:101840001124A859BE4F15968C91882329F0B11008
:1018500003C0B08081E0B826B0826B2D842DDBD52B
:1018600087E0809FF001819FF00D1124E859FE4F21
:101870002181BB2011F081E001C082E09BE0909FBC
:10188000F001919FF00D1124EE5AFE4F92859111B7
:101890000EC08183828383838EE790E09583848367
:1018A0001782168281E0822790E091878087C801A5
:1018B000880F991F880F991F865B9E4F10D81EC0F6
:1018C00080818823D1F087E0809FF001819FF00D17
:1018D0001124E859FE4F818181110FC0842DADD5AF
:1018E000F801EA58FE4F8081882339F0E5EEF0E0F8
:1018F000EC0FFD1FE50DF11D1082B12CF801EA5827
:10190000FE4F8081882339F0E5EEF0E0EC0FFD1FFB
:10191000E50DF11DB082F801E258FE4FA5EEB0E0F2
:10192000AC0FBD1FA00FB11F8C9180836701EE2407
:10193000FF24639422E0621226CE02E511E0E12C3E
:10194000F12CD80116962D913C91179714968D91F4
:101950009C911597AC0156954795F701EE5AFE4FAD
:101960002417350710F0428101C043812F5F3F4F9C
:10197000D80117963C932E93169728173907D8F05D
:1019800017961C921E92169718968D919C911997F6
:10199000009789F0019719969C938E93189783303E
:1019A000910548F412821382892B29F415961C9212
:1019B0001E9214971286411104C0F80180814CD9FF
:1019C00009C0423021F4D8018C911ED903C0F8011E
:1019D00080814AD9FBE0EF0EF11C055F1F4F26E125
:1019E000E216F10409F0ADCFC551DF4F888199812E
:1019F000AA81BB81CB5ED040B695A7959795879578
:101A0000C551DF4FC880D980EA80FB80CB5ED040D3
:101A100031E0C322DD24EE24FF24F094E094D0943E
:101A2000C094C11CD11CE11CF11CE1E0CE22DD24DC
:101A3000EE24E0EDFE22C826D926EA26FB2620CC9D
:101A400090917900FE01E253FF4F81E08719E80F82
:101A5000F11D90837394F72DF1707F2E809100011A
:101A60008F2B80937C0080917A00806480937A0031
:101A70001FCC80916B01811110CD80914601809324
:101A80004E018091470180934F01809148019091D0
:101A90004901909351018093500180917D01809381
:101AA0007F0110927601F9CC811106CD809142011F
:101AB00080934A018091430180934B0180914401BE
:101AC0009091450190934D0180934C0180917C0150
:101AD00080937E0110927701EFCC109268011092F2
:101AE000690110926A0110926B0110926C011092C0
:101AF0006D0110926E0110926F01109270011092A0
:101B0000710110927201109273011092740181E0C0
:101B10008093750110925201109254011092550158
:101B200010925701109256011092590110925801CB
:101B300010925B0110925A0110925C0180935D013A
:101B400010925F0110926001109262011092610187
:101B50001092640110926301109266011092650167
:101B60001092670110924A0110924B0110924D01A0
:101B700010924C0110924E0110924F01109251019F
:101B800010925001109242011092430110924501AF
:101B9000109244011092460110924701109249019F
:101BA000109248010895F8947AC0F999FECF92BD39
:101BB00081BDF89A992780B50895262FF999FECF0F
:101BC0001FBA92BD81BD20BD0FB6F894FA9AF99A5A
:101BD0000FBE01960895AA1BBB1B51E107C0AA1FA7
:101BE000BB1FA617B70710F0A61BB70B881F991FBE
:101BF0005A95A9F780959095BC01CD01089597FB62
:101C0000072E16F4009406D077FD08D0E4DF07FC19
:101C100005D03EF4909581959F4F089570956195FC
:101C20007F4F08952F923F924F925F926F927F92D3
:101C30008F929F92AF92BF92CF92DF92EF92FF92DC
:101C40000F931F93CF93DF93CDB7DEB7CA1BDB0B88
:101C50000FB6F894DEBF0FBECDBF09942A8839882D
:101C600048885F846E847D848C849B84AA84B98434
:101C7000C884DF80EE80FD800C811B81AA81B98140
:101C8000CE0FD11D0FB6F894DEBF0FBECDBFED0154
:101C90000895EE0FFF1F0590F491E02D0994F8943C
:021CA000FFCF74
:101CA20040FFFFF0F030FCCCCCAC35939E8888AA84
:101CB200AA55557777F5F55555B5B56F6F090949A9
:101CC200492549DBDBDF7611A919D5C16F01D1495D
:101CD20052A9EA71F1DACF3CFE97B900FF00F80091
:021CE200000000
:00000001FF
